:100000000C94F1000C940E010C940E010C940E0152
:100010000C940E010C940E010C940E010C940E0124
:100020000C940E010C94CD0E0C940E010C940E0148
:100030000C940E010C940E010C940E010C940E0104
:100040000C940E010C940E010C940E010C940E01F4
:100050000C940E012020202053656C6563742020D1
:1000600020200000202020544553542052414D2090
:100070002020000020204552524F522052414D2056
:10008000212000002020544553542052414D206F20
:100090006B200000202020204E6F207461702021F2
:1000A00020200000C041C1A0C242C3A1C4E0C54598
:1000B000A8A2C6A3C7A4C8A5C9A6CA4BCBA7CC4DA6
:1000C000CD48CE4FCFA8D050D143D254D3A9D4AA33
:1000D000D558D6E1D7ABD8ACD9E2DAADDBAEDC622D
:1000E000DDAFDEB0DFB1E061E1B2E2B3E3B4E4E39F
:1000F000E565B8B5E6B6E7B7E8B8E9B9EABAEBBB83
:10010000ECBCEDBDEE6FEFBEF070F163F2BFF379C2
:10011000F4E4F578F6E5F7C0F8C1F9E6FAC2FBC3F6
:10012000FCC4FDC5FEC6FFC7546865206D656D6FD4
:1001300072792063617264206973206E6F7420008D
:1001400000737570706F7274732053504900004DC6
:100150006170207368757420757021202020000064
:100160004361706163697479206F66205344206332
:10017000617264202000006E6F7420646566696E91
:1001800065642120202000004361706163697479F7
:10019000206F662053442063617264202000004673
:1001A000696C652073797374656D20000046415455
:1001B00033322D204572726F72212020000046419B
:1001C0005431362D204F6B2E20202020202000007F
:1001D00046415431322D204572726F722120200029
:1001E000000011241FBECFE5D4E0DEBFCDBF11E07B
:1001F000A0E6B0E0E4EEF5E302C005900D92A83170
:10020000B107D9F713E0A8E1B1E001C01D92A7380A
:10021000B107E1F70E9476160C94F01A0C940000D6
:100220008D9A8F9A8E9AA09A8FEF8ABBA19A87B3E4
:10023000807F87BB959A979A969AA89A08959798DF
:100240000000000095980000000000000000979A50
:1002500000000000959A08950F931F9327B3207F05
:1002600027BBA89A6BBBA99855B38C0122273327CB
:100270000170000F052B05BB9598672F782F892FEC
:1002800099276BBBA998442309F4A99A9798000071
:100290000000A8980000000086B3A89A979A979A41
:1002A000959A8F701F910F910895EF92FF920F937F
:1002B0001F93A89A37B33F6037BB6BBBA99835B380
:1002C0007C010027112751E0E522EE0CE32AE5BA74
:1002D0009598000096980000672F782F892F99270E
:1002E0006BBBA998222309F4A99A88B3807F88BBA5
:1002F00088B34F70842B88BB979800000000969AB3
:10030000979A959A1F910F91FF90EF900895DF9221
:10031000EF92FF920F931F937B018C0140E00E94AC
:100320002C01D82ED294F0EFDF22C801B70141E0B2
:100330000E942C018D291F910F91FF90EF90DF906B
:100340000895DF92EF92FF920F931F937B018C0130
:10035000D42E42954F7020E00E9455018FE0D822A4
:10036000C801B7014D2D21E00E9455011F910F9149
:10037000FF90EF90DF900895AD98AC98AB98AA9855
:10038000AE9A45B3282F26952695269530E0217004
:10039000307055E0220F331F5A95E1F7422B45BBD1
:1003A00045B3282F2695269530E02170307094E0D3
:1003B000220F331F9A95E1F7422B45BB45B3282FF7
:1003C000269530E021703070B3E0220F331FBA95CC
:1003D000E1F7422B45BB25B390E081709070880F08
:1003E000991F880F991F282B25BB80E991E0FC01FC
:1003F0003197F1F7AE980197F1F708951F93182FF1
:10040000AF9A82958F700E94BC01812F8F700E94DD
:10041000BC011F9108951F93182FAF9882958F707C
:100420000E94BC01812F8F700E94BC011F91089512
:10043000A79AA69AA59AA49AA39AA29A88EE93E05C
:1004400020E931E0F9013197F1F70197D9F7AF9839
:1004500083E00E94BC0188EE93E020E931E0F901DD
:100460003197F1F70197D9F783E00E94BC0180E250
:1004700093E00197F1F783E00E94BC0182E00E94C3
:10048000BC018CE20E940B0288E592E020E931E099
:10049000F9013197F1F70197D9F788E00E940B0233
:1004A00088E592E020E931E0F9013197F1F7019711
:1004B000D9F781E00E940B0288E592E020E931E063
:1004C000F9013197F1F70197D9F786E00E940B0205
:1004D0008CE00E940B0288E592E020E931E0F9010E
:1004E0003197F1F70197D9F70895AF92BF92CF9264
:1004F000DF92FF920F931F93DF93CF93CDB7DEB7B9
:1005000060970FB6F894DEBF0FBECDBF182F092F2E
:1005100080E80E940B0280E991E00197F1F7212F1A
:10052000302FC9016C01DE0111969C01BE016F5E86
:100530007F4FF90140814C9380E090E0FC01EC5545
:10054000FF4FE491E41731F48B559F4FFC018491E8
:100550008C9304C002968438910581F72F5F3F4F3A
:100560001196A617B70729F700E010E05E0108947E
:10057000A11CB11CF02EF60180818823A1F0F501A9
:10058000E00FF11F80810E94FE01F3940F5F1F4F67
:100590000894C11CD11C0031110561F704C080E230
:1005A0000E94FE01F394FFE0FF15C8F760960FB6B6
:1005B000F894DEBF0FBECDBFCF91DF911F910F9199
:1005C000FF90DF90CF90BF90AF900895AF92BF9211
:1005D000CF92DF92FF920F931F93DF93CF93CDB70C
:1005E000DEB760970FB6F894DEBF0FBECDBF182FF1
:1005F000092F88EA0E940B0280E991E00197F1F748
:10060000212F302FC9016C01DE0111969C01BE0122
:100610006F5E7F4FF90140814C9380E090E0FC01D8
:10062000EC55FF4FE491E41731F48B559F4FFC01DB
:1006300084918C9304C002968438910581F72F5FD2
:100640003F4F1196A617B70729F700E010E05E01AB
:100650000894A11CB11CF02EF60180818823A1F022
:10066000F501E00FF11F80810E94FE01F3940F5FFE
:100670001F4F0894C11CD11C0031110561F704C043
:1006800080E20E94FE01F394FFE0FF15C8F7609638
:100690000FB6F894DEBF0FBECDBFCF91DF911F9193
:1006A0000F91FF90DF90CF90BF90AF900895AF92E1
:1006B000BF92CF92DF92FF920F931F93DF93CF935E
:1006C000CDB7DEB760970FB6F894DEBF0FBECDBFD3
:1006D0005C0180E80E940B0280E991E00197F1F74C
:1006E0009501DE011196BE016F5E7F4FF9014491C5
:1006F0004C9380E090E0FC01EC55FF4FE491E4174F
:1007000031F48B559F4FFC0184918C9304C0029669
:100710008438910581F72F5F3F4F1196A617B707D1
:1007200029F700E010E06E010894C11CD11CF02EE6
:10073000F501E00FF11FE491EE2389F0F601E00FDF
:10074000F11F80810E94FE01F3940F5F1F4F003163
:10075000110569F704C080E20E94FE01F394FFE0F6
:10076000FF15C8F760960FB6F894DEBF0FBECDBF79
:10077000CF91DF911F910F91FF90DF90CF90BF90AD
:10078000AF900895AF92BF92CF92DF92FF920F93F6
:100790001F93DF93CF93CDB7DEB760970FB6F89472
:1007A000DEBF0FBECDBF5C0188EA0E940B0280E96C
:1007B00091E00197F1F79501DE011196BE016F5EA0
:1007C0007F4FF90144914C9380E090E0FC01EC559F
:1007D000FF4FE491E41731F48B559F4FFC01849156
:1007E0008C9304C002968438910581F72F5F3F4FA8
:1007F0001196A617B70729F700E010E06E010894DC
:10080000C11CD11CF02EF501E00FF11FE491EE2385
:1008100089F0F601E00FF11F80810E94FE01F39440
:100820000F5F1F4F0031110569F704C080E20E947D
:10083000FE01F394FFE0FF15C8F760960FB6F89439
:10084000DEBF0FBECDBFCF91DF911F910F91FF9003
:10085000DF90CF90BF90AF9008958FB9779BFECF78
:100860008FB108950F93DF93CF9300D000D00F92F4
:10087000CDB7DEB789836A834B832C830D83FE015A
:1008800031969E012A5F3F4F80818FB9779BFECFC3
:100890008FB13196E217F307B9F785E98FB9779BE6
:1008A000FECF8FB120E030E09FEF9FB9779BFECF66
:1008B0008FB187FF07C02F5F3F4F8FEF2F3F380764
:1008C000A1F78FEF0F900F900F900F900F90CF9197
:1008D000DF910F9108950F931F93CF93DF93EC0156
:1008E0006F5F641BA0E0B0E030E00FE010E01EC0DE
:1008F000232F240F822F869586958695F801E81B75
:10090000F109EC0FFD1F808190E0277002C09595E2
:1009100087952A95E2F781709070032E02C0880FA8
:10092000991F0A94E2F7A82BB92B3F5F361700F303
:10093000CD01DF91CF911F910F910895CF92DF925A
:10094000EF92FF920F931F93DF93CF93CDB7DEB754
:1009500060970FB6F894DEBF0FBECDBF89E460E0AC
:1009600040E020E000E00E9432048F3F09F459C0CB
:1009700020E030E04FEF95E04FB9779BFECF8FB18D
:100980008E3F51F0892F8A95F1F72F5F3F4F8FEF00
:100990002F3F380789F745C0FE0131969FEF9E0132
:1009A0002F5E3F4F9FB9779BFECF8FB18193E217A8
:1009B000F307C1F780E090E02FEF2FB9779BFECFD0
:1009C0003FB101968F3F9105C1F78E010F5F1F4F19
:1009D000C80169E44EE30E946B046C01C80161E345
:1009E0004FE20E946B04EE24FF240894C11CD11C2A
:1009F000E11CF11C029604C0CC0CDD1CEE1CFF1C9B
:100A00008A95D2F7C80163E540E50E946B04A7010F
:100A1000960104C0220F331F441F551F8A95D2F739
:100A200004C02FEF3FEF40E050E0B901CA016096EB
:100A30000FB6F894DEBF0FBECDBFCF91DF911F91EF
:100A40000F91FF90EF90DF90CF9008956F927F927B
:100A50008F929F92AF92BF92CF92DF92EF92FF92CE
:100A60000F931F937B018C01292F33274427552790
:100A70005801CC24DD246F2C702E812E992481E521
:100A8000622F4A2D262D0E2D0E9432048823D9F480
:100A90008FEF8FB9779BFECF8FB120E030E09FEFD3
:100AA0009FB9779BFECF8FB18E3F39F02F5F3F4FBD
:100AB0008FEF2F3F3807A1F706C010921201109256
:100AC000110181E001C080E01F910F91FF90EF9034
:100AD000DF90CF90BF90AF909F908F907F906F905E
:100AE0000895FC0180911101909112018050924073
:100AF00010F080E008958FEF8FB9779BFECF8FB114
:100B000080838091110190911201019690931201BE
:100B1000809311018050924011F081E008958FEF91
:100B20008FB9779BFECF8FB18FEF8FB9779BFECFB9
:100B30008FB181E008956F927F928F929F92AF92D2
:100B4000BF92CF92DF92EF92FF920F931F93CF93BA
:100B5000DF937B018C01EA01292F33274427552796
:100B60005C01CC24DD24672E782E892E992481E522
:100B7000622F4A2D262D0E2D0E943204882389F5DE
:100B80008FEF8FB9779BFECF8FB120E030E09FEFE2
:100B90009FB9779BFECF8FB18E3F39F02F5F3F4FCC
:100BA0008FEF2F3F3807A1F71CC020E030E09FEF08
:100BB0009FB9779BFECF8FB188832F5F3F4F82E035
:100BC0002030380711F02196F3CF8FEF8FB9779B44
:100BD000FECF8FB18FEF8FB9779BFECF8FB181E0C2
:100BE00001C080E0DF91CF911F910F91FF90EF90B6
:100BF000DF90CF90BF90AF909F908F907F906F903D
:100C00000895EF92FF920F931F937B018C018091C7
:100C1000200190912101A0912201B0912301E80EC1
:100C2000F91E0A1F1B1FA801970189E056954795D9
:100C3000379527958A95D1F78091130190911401EA
:100C4000A0911501B0911601281739074A075B07D3
:100C500081F02093130130931401409315015093B8
:100C60001601C801B70160707E7F4AE251E00E9420
:100C70009B05F701F170E65DFE4F608170E080E05A
:100C800090E01F910F91FF90EF900895AF92BF9267
:100C9000CF92DF92EF92FF920F931F935B016C0153
:100CA0006F5F7F4F8F4F9F4F0E9401067B018C012A
:100CB000102F0F2DFE2CEE24C601B5010E94010657
:100CC0009B01AC012E293F29402B512BB901CA01B0
:100CD0001F910F91FF90EF90DF90CF90BF90AF905A
:100CE00008952F923F924F925F926F927F928F92D0
:100CF0009F92AF92BF92CF92DF92EF92FF920F93AB
:100D00001F93CF93DF93EC018C819D81AE81BF81D6
:100D10008097A109B1098C839D83AE83BF83288905
:100D200039894A895B8982179307A407B50708F0B8
:100D3000B4C0288139814A815B818091830390917D
:100D40008403A0918503B0918603281739074A07C9
:100D50005B0709F4A4C0288439844A845B848091A9
:100D60002401813021F0EE24FF24870106C0820196
:100D70007101EE0CFF1C001F111F60916F03709139
:100D80007003809171039091720320914F03309111
:100D9000500340915103509152030E94D017E60E28
:100DA000F71E081F191FC801B7010E9446067B01E4
:100DB0008C01DC01CB010397A109B109855F9F4F2D
:100DC000A040B04008F06BC08C859D85AE85BF8586
:100DD000E816F9060A071B0729F0C701D8011C010C
:100DE0002D01BDCFD201C1010397A109B109855FD2
:100DF0009F4FA040B04008F052C02C863D864E86E2
:100E00005F866090470370904803809049039090FC
:100E10004A03A0906F03B0907003C0907103D0900C
:100E200072038EEF9FEFAFEFBFEF280E391E4A1E01
:100E30005B1EC201B101A40193010E94D0179B0166
:100E4000AC016091430370914403809145039091FC
:100E50004603620F731F841F951FA60195010E9410
:100E6000D0177B018C01688B798B8A8B9B8BC60199
:100E7000B501A40193010E94D0176E0D7F1D801F44
:100E8000911F6C8B7D8B8E8B9F8B6052704080404E
:100E900090406C837D838E839F8381E001C080E0DE
:100EA000DF91CF911F910F91FF90EF90DF90CF9046
:100EB000BF90AF909F908F907F906F905F904F907A
:100EC0003F902F900895AF92BF92CF92DF92EF9212
:100ED000FF920F931F93DF93CF93CDB7DEB7689741
:100EE0000FB6F894DEBF0FBECDBFDE011196E7E569
:100EF000F3E088E101900D928150E1F75E010894E2
:100F0000A11CB11CC5010E947106882309F46CC0A4
:100F1000CC24DD2476016D817E818F8198856C0DD6
:100F20007D1D8E1D9F1D0E9401068C2DCC2021F45D
:100F3000603241F3653E31F3603220F38130A9F431
:100F40006D817E818F8198850E940106162F6D81AB
:100F50007E818F8198856F5F7F4F8F4F9F4F0E945B
:100F600001061E3211F46E3269F60894C11CD11CC0
:100F7000E11CF11C8BE0C816D104E104F10459F620
:100F800044C06D817E818F819885665F7F4F8F4FD2
:100F90009F4F0E940106162F6D817E818F8198855B
:100FA000675F7F4F8F4F9F4F0E940106062F6D8115
:100FB0007E818F819885685F7F4F8F4F9F4F0E9402
:100FC0000106103509F09ECF013409F09BCF64353E
:100FD00009F098CFA7E5B3E0FE01319688E10190D2
:100FE0000D928150E1F781E068960FB6F894DEBF6C
:100FF0000FBECDBFCF91DF911F910F91FF90EF906A
:10100000DF90CF90BF90AF9008956D817E818F81EA
:101010009885655F7F4F8F4F9F4F0E94010664FF49
:10102000B0CFD8CF6F927F928F929F92AF92BF92A4
:10103000CF92DF92EF92FF920F931F93CF93DF93A4
:10104000EC018C819D81AE81BF818096A11DB11D77
:101050008C839D83AE83BF832C893D894E895F89B4
:1010600082179307A407B50708F4A9C0288139811E
:101070004A815B818091830390918403A0918503D1
:10108000B0918603281739074A075B0709F499C00E
:10109000E0912401E13021F0EE24FF24870108C013
:1010A000EC84FD840E851F85EE0CFF1C001F111FB4
:1010B00020914F03309150034091510350915203BE
:1010C00060916F037091700380917103909172032E
:1010D000E13009F076C00E94D017E60EF71E081F17
:1010E000191FC801B7010E9446069B01AC0161159A
:1010F00071058105910509F464C080917703909191
:101100007803A0917903B0917A030296A11DB11DD5
:10111000281739074A075B0708F053C0283F8FEFAD
:10112000380780E0480780E0580708F04AC02C875D
:101130003D874E875F87609047037090480380909B
:10114000490390904A03A0906F03B0907003C09041
:101150007103D09072032250304040405040CA0189
:10116000B901A40193010E94D0179B01AC016091C9
:101170004303709144038091450390914603620FAD
:10118000731F841F951FA60195010E94D0177B0134
:101190008C016C837D838E839F83688B798B8A8B94
:1011A0009B8BC601B501A40193010E94D0176E0D5F
:1011B0007F1D801F911F6C8B7D8B8E8B9F8B81E0A1
:1011C00001C080E0DF91CF911F910F91FF90EF90D0
:1011D000DF90CF90BF90AF909F908F907F906F9057
:1011E0000895AF92BF92CF92DF92EF92FF920F934A
:1011F0001F93DF93CF93CDB7DEB768970FB6F89400
:10120000DEBF0FBECDBFDE011196E7E5F3E088E15A
:1012100001900D928150E1F75E010894A11CB11C70
:10122000C5010E941208882309F46CC0CC24DD2477
:1012300076016D817E818F8198856C0D7D1D8E1D5F
:101240009F1D0E9401068C2DCC2021F4603241F3B9
:10125000653E31F3603220F38130A9F46D817E81E7
:101260008F8198850E940106162F6D817E818F8166
:1012700098856F5F7F4F8F4F9F4F0E9401061E32F0
:1012800011F46E3269F60894C11CD11CE11CF11CEA
:101290008BE0C816D104E104F10459F644C06D8115
:1012A0007E818F819885665F7F4F8F4F9F4F0E9411
:1012B0000106162F6D817E818F819885675F7F4F34
:1012C0008F4F9F4F0E940106062F6D817E818F8177
:1012D0009885685F7F4F8F4F9F4F0E9401061035A2
:1012E00009F09ECF013409F09BCF643509F098CF07
:1012F000A7E5B3E0FE01319688E101900D9281509F
:10130000E1F781E068960FB6F894DEBF0FBECDBF5F
:10131000CF91DF911F910F91FF90EF90DF90CF90D1
:10132000BF90AF9008956D817E818F819885655FB4
:101330007F4F8F4F9F4F0E94010664FFB0CFD8CFE1
:10134000AF92BF92CF92DF92EF92FF920F931F93D3
:101350005B016C016D5F7F4F8F4F9F4F0E940106B5
:101360007B018C01102F0F2DFE2CEE24C601B50140
:101370006E5F7F4F8F4F9F4F0E940106E62AF72A2C
:10138000082B192B102F0F2DFE2CEE24C601B501B2
:101390006F5F7F4F8F4F9F4F0E940106E62AF72A0B
:1013A000082B192B102F0F2DFE2CEE24C601B50192
:1013B0000E9401069B01AC012E293F29402B512B95
:1013C000B901CA011F910F91FF90EF90DF90CF906C
:1013D000BF90AF9008952F923F924F925F926F927D
:1013E0007F928F929F92AF92BF92CF92DF92EF92B5
:1013F000FF920F931F93DF93CF93CDB7DEB768971C
:101400000FB6F894DEBF0FBECDBF4C012B011A0101
:101410003901D9011C92009729F45401CC24DD2410
:1014200076010CC080E090E020E2F401E80FF91FA3
:10143000208301968B309105C1F7EFCF60915B035C
:1014400070915C0380915D0390915E036C0D7D1D36
:101450008E1D9F1D0E9401068C2DCC2031F4603220
:1014600009F48FC1653E09F48CC1603208F489C16A
:101470008114910449F0883018F4F501608304C0A8
:10148000D50111966C9320C08130F1F460915B031B
:1014900070915C0380915D0390915E030E94010650
:1014A000162F60915B0370915C0380915D039091B6
:1014B0005E036F5F7F4F8F4F9F4F0E9401061E326A
:1014C00019F46E3209F05DC10894C11CD11CE11CF5
:1014D000F11C0894A11CB11CBBE0CB16D104E104A3
:1014E000F10409F0ABCF69C10A96A11DB11DBC0181
:1014F000CD010E940106162F60915B0370915C0381
:1015000080915D0390915E03675F7F4F8F4F9F4F88
:101510000E940106062F60915B0370915C0380912D
:101520005D0390915E03685F7F4F8F4F9F4F0E94D6
:101530000106103509F025C1013409F022C16435D6
:1015400009F01FC11EC0BC01CD010E940106162F6B
:1015500060915B0370915C0380915D0390915E03E9
:101560006F5F7F4F8F4F9F4F0E9401061E3231F4F5
:101570006E3221F48FEFF301808303C081E0D30149
:101580008C9360915B0370915C0380915D039091FB
:101590005E036C5E7F4F8F4F9F4F0E9446067B011C
:1015A0008C0160915B0370915C0380915D0390916D
:1015B0005E03665E7F4F8F4F9F4F0E9446068701F6
:1015C000FF24EE24E62AF72A082B192BF201E082E9
:1015D000F1820283138360915B0370915C038091BD
:1015E0005D0390915E03645E7F4F8F4F9F4F0E941B
:1015F000A009D1016D937D938D939C9313978114D2
:10160000910409F4C0C0CD2819F48EE2F40180875A
:10161000D4011C961C92DE011196E7E5F3E088E107
:1016200001900D928150E1F7DD245E010894A11C28
:10163000B11CC5010E947106882309F497C06D8111
:101640007E818F819885655F7F4F8F4F9F4F0E946E
:10165000010670E06F707070672B09F487C06D81B0
:101660007E818F8198850E940106C62EEE24FF247C
:10167000870125C06D817E818F8198856F5F7F4F47
:101680008F4F9F4F6E0D7F1D801F911F0E9401067F
:10169000F401ED0DF11D6083D39482E090E0A0E0B1
:1016A000B0E0E80EF91E0A1F1B1F9AE0E916F104CC
:1016B0000105110521F4EE24FF2487013CC0A0E1BF
:1016C000AD15C0F6F8CF6D817E818F819885625F00
:1016D0007F4F8F4F9F4F6E0D7F1D801F911F0E9468
:1016E0000106F401ED0DF11D6083D39482E090E0DA
:1016F000A0E0B0E0E80EF91E0A1F1B1F9CE0E916EF
:10170000F10401051105B9F4A0E1AD1508F474C0A8
:101710006D817E818F819885645E7F4F8F4F9F4F53
:101720000E940106F401ED0DF11D60831D2D1F5F68
:10173000113129F461C0B0E1BD1528F65DC06D819D
:101740007E818F819885625E7F4F8F4F9F4F0E9471
:101750000106F401E10FF11D6083D12ED394E1E184
:10176000DE1609F449C0C6FE64CF06C0F0E1FD15DF
:1017700008F442C0DD2039F08D0C911CD4011C927C
:1017800002C080E001C081E068960FB6F894DEBF29
:101790000FBECDBFCF91DF911F910F91FF90EF90C2
:1017A000DF90CF90BF90AF909F908F907F906F9081
:1017B0005F904F903F902F90089560915B037091E0
:1017C0005C0380915D0390915E03655F7F4F8F4F57
:1017D0009F4F0E94010670E080915B0390915C0333
:1017E000A0915D03B0915E03E0E1CE2ED12CC62224
:1017F000D72264FF79CEA7CE70E1D72EBDCF2F922E
:101800003F924F925F926F927F928F929F92AF9290
:10181000BF92CF92DF92EF92FF920F931F93DF93CD
:10182000CF93CDB7DEB766970FB6F894DEBF0FBE85
:10183000CDBF9A8B898B7C8B6B8BFC0111821082C4
:101840008AE293E0BE016E5F7F4FAE014A5F5F4F59
:101850009E012F5F3F4F0E94EB09882309F40BC1C3
:1018600066247724430122243324188A1F864424C3
:1018700055241E86F6C00E941F01A0907F03B090E1
:101880008003C0908103D09082032E813F814885E0
:101890005985D401C3018A0D9B1DAC1DBD1D821746
:1018A0009307A407B50730F059016A01A618B708D5
:1018B000C808D9086A817B818C819D816250704003
:1018C0008040904020914703309148034091490364
:1018D00050914A030E94D0179B01AC0160914303D1
:1018E000709144038091450390914603620F731FEA
:1018F000841F951F20916F033091700340917103F5
:10190000509172030E94D0176A877B878C879D87CE
:10191000EE24FF24870158C00E941F016A857B8541
:101920008C859D856E0D7F1D801F911F0E94010675
:10193000462FFE85FF2329F4462E552421E02E87CD
:1019400039C03E85313059F46E8B1D8A8D899E8950
:10195000482A592A2224332492E09E872BC0EE8500
:10196000E23041F52F8538898B899C892817390702
:1019700029F4B10180E090E00E94A1010894211CAB
:10198000311C24143504B0F0EF85F8892B893C898B
:10199000E217F30731F4E989FA895182408281E044
:1019A0006BC02F8538892F5F3F4F388B2F8744249A
:1019B00055241E860894E11CF11C011D111D08947C
:1019C000611C711C811C911CEA14FB040C051D0593
:1019D00008F4A2CFE0912401E13021F0EE24FF24AD
:1019E000870108C0EA80FB800C811D81EE0CFF1C82
:1019F000001F111F20914F0330915003409151035C
:101A00005091520360916F03709170038091710344
:101A100090917203E13079F50E94D017E60EF71E1F
:101A2000081F191FC801B7010E9446069B01AC019F
:101A30006115710581059105F1F080917703909111
:101A40007803A0917903B0917A030296A11DB11D8C
:101A5000281739074A075B0770F42A833B834C83B6
:101A60005D838E819F81A885B985681679068A066F
:101A70009B0608F400CF80E066960FB6F894DEBFB0
:101A80000FBECDBFCF91DF911F910F91FF90EF90CF
:101A9000DF90CF90BF90AF909F908F907F906F908E
:101AA0005F904F903F902F900895AF92BF92CF924A
:101AB000DF92EF92FF920F931F93DF93CF93CDB7F7
:101AC000DEB729970FB6F894DEBF0FBECDBFE0900A
:101AD0005703F09058030091590310915A03E09274
:101AE0005B03F0925C0300935D0310935E038091AF
:101AF0005F0390916003A0916103B09162038093B2
:101B0000630390936403A0936503B0936603E0922C
:101B10006703F09268030093690310936A0380914E
:101B2000830390918403A0918503B0918603A090D4
:101B30006F03B0907003C0907103D0907203E816E9
:101B4000F9060A071B0749F0209147033091480323
:101B50004091490350914A0308C020917B03309182
:101B60007C0340917D0350917E03C601B5010E9424
:101B7000D017E60EF71E081F191FE0926B03F092B4
:101B80006C0300936D0310936E0312E0C12ED12CF1
:101B9000CC0EDD1EB6E0EB2EF12CEC0EFD1E8E0100
:101BA0000F5F1F4F80E090E0B601A70198010E94EF
:101BB000EB09882311F081E004C00E94F10888231A
:101BC00089F729960FB6F894DEBF0FBECDBFCF912F
:101BD000DF911F910F91FF90EF90DF90CF90BF901A
:101BE000AF9008952F923F924F925F926F927F92A3
:101BF0008F929F92AF92BF92CF92DF92EF92FF921D
:101C00000F931F931B012C0160906F037090700362
:101C100080907103909072036115710581059105A3
:101C2000D9F4E0908303F090840300918503109130
:101C30008603E0925703F0925803009359031093E0
:101C40005A0320917B0330917C0340917D03509196
:101C50007E03C401B30130C0A0904703B090480395
:101C6000C0904903D0904A03625070408040904039
:101C7000A60195010E94D0179B01AC01609143031E
:101C8000709144038091450390914603620F731F46
:101C9000841F951FA40193010E94D0177B018C0122
:101CA00060935703709358038093590390935A039A
:101CB000C401B301A60195010E94D017E60EF71EDC
:101CC000081F191FE0926B03F0926C0300936D03E1
:101CD00010936E0320925F03309260034092610381
:101CE0005092620320926303309264034092650332
:101CF000509266038091570390915803A091590325
:101D0000B0915A0380935B0390935C03A0935D03AF
:101D1000B0935E038093670390936803A093690375
:101D2000B0936A030E94550D1F910F91FF90EF90A1
:101D3000DF90CF90BF90AF909F908F907F906F90EB
:101D40005F904F903F902F90089588EB9BE020E9A3
:101D500031E0F9013197F1F70197D9F7839906C07E
:101D6000819904C0829902C0849BF8CF0895F894A9
:101D70001ABA17BA11BA14BA8B9889988A988C989B
:101D8000889A8FEF8BBB88BB82BB85BB83E083BF08
:101D900012BE81E089BF909808951F920F920FB6EE
:101DA0000F9211242F933F934F935F936F937F93E1
:101DB0008F939F93AF93BF93CF93DF93EF93FF9353
:101DC00012BE80911E01843011F49098AAC08091B7
:101DD0001F01813021F4909A10921F0104C0909845
:101DE00081E080931F0180911E018823F1F480918E
:101DF00029012EE830E002C0359527958A95E2F753
:101E0000209522BF80911C0190911D011816190682
:101E100054F480911C0190911D01019790931D0134
:101E200080931C0102C081E010C080911E018130AE
:101E300079F4809129012BE230E002C03595279595
:101E40008A95E2F7209522BF82E080931E0169C047
:101E500080911E018230C1F42091290180E390E03D
:101E600002C0959587952A95E2F7809582BF83E019
:101E700080931E0180E18093270110922801109227
:101E80002601109225014DC080911E01833009F07A
:101E900048C080912701803130F1C0912501D09157
:101EA00026018091180190911901C817D90740F0B7
:101EB00084E080931E0110921B0110921A0131C020
:101EC00010922701BE0180E090E00E94870180937C
:101ED0002801CE01019690932601809325019093CD
:101EE0001B0180931A013091280137FF05C0209112
:101EF000290180E790E004C02091290188E390E067
:101F000002C0959587952A95E2F7809582BF8091CA
:101F1000270180FF03C0330F309328018F5F809328
:101F20002701FF91EF91DF91CF91BF91AF919F91E9
:101F30008F917F916F915F914F913F912F910F9072
:101F40000FBE0F901F9018952F923F924F925F9265
:101F50006F927F928F929F92AF92BF92CF92DF92B9
:101F6000EF92FF920F931F93CF93DF9388E893E153
:101F700020E931E0F9013197F1F70197D9F700E055
:101F800010E05AE2A52E53E0B52E40E6842E40E044
:101F9000942E30E7232E37E1332E20E9E22E21E084
:101FA000F22E9EE6492E90E0592E80E4682E8CE9B0
:101FB000782E88E191E0B8010E94FF0B882309F494
:101FC00021C168010894C11CD11C2DB73EB728500F
:101FD00030400FB6F8943EBF0FBE2DBFEDB7FEB731
:101FE0003196ADB7BEB71296BC92AE92119793825E
:101FF0008282D582C48280911801909119019783C1
:1020000086830E9418182DB73EB7285F3F4F0FB642
:10201000F8943EBF0FBE2DBFC5010E94750212BECF
:1020200080912901D10102C0AA0FBB1F8A95E2F756
:10203000B0931D01A0931C0110921E0110921F016C
:1020400010921B0110921A017894C0E0D0E0F8942D
:102050000E941F0180911E01843009F062C000D0EF
:1020600000D000D0EDB7FEB73196ADB7BEB712962F
:10207000BC92AE92119753824282D582C4820E9452
:1020800018182DB73EB72A5F3F4F0FB6F8943EBFE2
:102090000FBE2DBFC5010E9475028091180190915D
:1020A0001901449718F044EF51E002C048EC50E0A9
:1020B00020E030E031C0C3010197F1F78499A2C05C
:1020C000829B10C080ED97E0F7013197F1F70197FF
:1020D000D9F7829BFECF80ED97E0F7013197F1F7BA
:1020E0000197D9F7839B08C080ED97E0F7013197FE
:1020F000F1F70197D9F783C0819B0CC080ED97E081
:10210000F7013197F1F70197D9F70115110509F496
:1021100076C072C02F5F3F4F2417350708F4CBCF2E
:102120006EC0209118013091190140911A0150910F
:102130001B0180911E017894833069F585E7C033D7
:10214000D80741F5ADB7BEB718970FB6F894BEBF24
:102150000FBEADBFEDB7FEB731961296BC92AE92F0
:10216000119793828282D582C482241B350B3783D8
:1021700026830E9418182DB73EB7285F3F4F0FB631
:10218000F8943EBF0FBE2DBFC5010E947502C0E08E
:10219000D0E001C0219685E38A95F1F7849B02C0C7
:1021A000F89430C0829B12C0F89480ED97E0F7015C
:1021B0003197F1F70197D9F7829BFECF789480EDA4
:1021C00097E0F7013197F1F70197D9F7839B08C0A2
:1021D00080ED97E0F7013197F1F70197D9F70FC03C
:1021E000819B35CF80ED97E0F7013197F1F70197AB
:1021F000D9F70115110521F00150104001C08601E9
:10220000F894D7CE9098DF91CF911F910F91FF90C6
:10221000EF90DF90CF90BF90AF909F908F907F9086
:102220006F905F904F903F902F9008954F925F92E4
:102230006F927F928F929F92AF92BF92CF92DF92D6
:10224000EF92FF920F931F93CF93DF9384E690E07A
:102250000E9457031FEFCC24DD24760188249924A3
:102260005401CAE2D3E06BE7462E60E0562EC5016A
:10227000B4012FEF3FEF41E050E00E94EF17722EC4
:102280002117E9F000D000D000D0EDB7FEB73196AD
:10229000ADB7BEB71296DC93CE93119753824282AC
:1022A000248315820E9418188DB79EB706960FB624
:1022B000F8949EBF0FBE8DBFCE010E94E60211E0D2
:1022C00000E0C701B601412F0E94A1010E941F0139
:1022D000C701B6010E948701682E1817B1F184E783
:1022E00090E00E945703ADB7BEB71A970FB6F894A7
:1022F000BEBF0FBEADBFEDB7FEB73196CAE2D3E0A9
:102300001296DC93CE9311978AE890E093838283B0
:10231000D582C48216831782608611860E9418189F
:102320008DB79EB70A960FB6F8949EBF0FBE8DBFAD
:10233000CE010E94E60280E593EC20E931E0F9014C
:102340003197F1F70197D9F72EC00F5F083011F0E0
:10235000110FB7CF0894C11CD11CE11CF11C84E6FD
:1023600090E0A0E0B0E0880E991EAA1EBB1E172DBB
:1023700090E0C91690E0D90692E0E90690E0F906EF
:1023800009F075CF84E890E00E9457038FE990E050
:102390000E94E60280E395E720E931E0F9013197F8
:1023A000F1F70197D9F7DF91CF911F910F91FF902E
:1023B000EF90DF90CF90BF90AF909F908F907F90E5
:1023C0006F905F904F9008952F923F924F925F923F
:1023D0006F927F928F929F92AF92BF92CF92DF9235
:1023E000EF92FF920F931F93DF93CF93CDB7DEB79A
:1023F000E1970FB6F894DEBF0FBECDBF0E94550D1A
:10240000882391F484E990E00E9457038FE990E0DB
:102410000E94E60280E29EE420E931E0F901319772
:10242000F1F70197D9F7F5C081E090E09B878A87A3
:10243000DD2461E0E62EF12C5AE2852E53E0952E44
:102440005E010894A11CB11C40EA242E40E0342E09
:1024500030E9432E31E0532E21E0622E712C01C071
:1024600078018AE293E0BE016E5F7F4FAE014A5F62
:102470005F4F95010E94EB09813021F48AE293E0DD
:102480000E94E6028981882311F58DB79EB70897CF
:102490000FB6F8949EBF0FBE8DBFEDB7FEB7319655
:1024A000ADB7BEB712969C928E921197338222825C
:1024B000D4821582F782E6820E9418188DB79EB7E3
:1024C00008960FB6F8949EBF0FBE8DBF21C0ADB762
:1024D000BEB718970FB6F894BEBF0FBEADBFEDB72D
:1024E000FEB7319612969C928E92119781EB90E0F6
:1024F00093838283D4821582F782E6820E94181821
:10250000ADB7BEB718960FB6F894BEBF0FBEADBF3D
:102510008AE293E00E94750288EB9BE0F20131971A
:10252000F1F70197D9F7839B14C0829B03C09AE00F
:10253000C92E02C0CC24C39487010E946307813056
:1025400009F08ECF015010408E2D801B8C15A8F302
:1025500087CF819B14C0829B03C08AE0C82E02C033
:10256000CC24C39487010E94F108813009F078CF10
:102570000F5F1F4F802F8E198C15A8F371CF849B8E
:10258000D2CF8981882319F40E94A40F6ACFB3E1C6
:10259000BD1540F0ED2DF0E0EE0FFF1FEA0DFB1D25
:1025A000F286E18687FF04C0DD2071F0DA940CC06A
:1025B000D39483E18D1540F0ED2DF0E0EE0FFF1F79
:1025C000EA0DFB1D728661866A817B818C819D810B
:1025D0000E94F20D93E19D1520F4B1E0EB2EF12C59
:1025E00040CFED2DF0E0EE0FFF1FEA0DFB1D018542
:1025F000128571E0E72EF12C08C00E94F1088130AD
:1026000009F02FCF0894E11CF11CE016F106A8F3A5
:1026100028CFE1960FB6F894DEBF0FBECDBFCF91A5
:10262000DF911F910F91FF90EF90DF90CF90BF90BF
:10263000AF909F908F907F906F905F904F903F9062
:102640002F900895FF920F931F93CF93DF938FE9FD
:1026500090E00E9475028FE990E00E94E602BC9A29
:10266000BD9ABF9ABE9888EE93E020E931E0F90167
:102670003197F1F70197D9F7C49A88E893E120E9F7
:1026800031E0F9013197F1F70197D9F7C59A20E0C8
:1026900040EA5FE0C79ACA010197F1F7C798CA01FB
:1026A0000197F1F72F5F2A3FA9F7C49880E58DB90C
:1026B00081E08EB988EE93E020E931E0F9013197AD
:1026C000F1F70197D9F780E460E040E020E000E016
:1026D0000E943204813091F088E291E00E94570319
:1026E00081E491E00E94C20380E395E720E931E0B4
:1026F000F9013197F1F70197D9F780C08FEF8FB9C2
:10270000779BFECF8FB1C0E0D0E0FF24FA9415E0B4
:1027100081E460E040E020E000E00E943204FFB885
:10272000779BFECF9FB18823B1F0812F8A95F1F777
:1027300021968FEFCF3FD80759F78FE491E00E94A1
:10274000570380E395E720E931E0F9013197F1F78C
:102750000197D9F753C00E949E049B01AC012F3F03
:102760009FEF390790E0490790E0590791F480E620
:1027700091E00E94570387E791E00E94C20380E343
:1027800095E720E931E0F9013197F1F70197D9F7A1
:1027900035C000D000D000D0EDB7FEB731960AE2C8
:1027A00013E0ADB7BEB712961C930E93119783EC4E
:1027B00090E09383828374E15695479537952795EA
:1027C0007A95D1F7358324830E9418188DB79EB768
:1027D00006960FB6F8949EBF0FBE8DBF88E891E0B5
:1027E0000E945703C8010E94E60280E197E220E9B7
:1027F00031E0F9013197F1F70197D9F7DF91CF91E6
:102800001F910F91FF9008956F927F928F929F92E8
:10281000AF92BF92CF92DF92EF92FF920F931F93EE
:102820008FE990E00E9475028FE990E00E94E60235
:102830008FEF9FEFAFEFBFEF8093130190931401E1
:10284000A0931501B093160110922001109221015E
:102850001092220110922301EE24FF248701C80167
:10286000B7010E940106693E11F06B3EE9F4C80110
:10287000B70161507E4F8F4F9F4F0E9401066A3A09
:1028800099F4C801B70162507E4F8F4F9F4F0E944D
:102890000106653549F4E0922001F0922101009390
:1028A0002201109323010EC00894E11CF11C011DAC
:1028B000111D20E0E21620E0F20620E0020722E0EF
:1028C000120769F68FEF9FEFAFEFBFEF8093130111
:1028D00090931401A0931501B09316016DE070E080
:1028E00080E090E00E9401066093470370934803E4
:1028F0008093490390934A036BE070E080E090E09E
:102900000E94460660936F03709370038093710377
:10291000909372036EE070E080E090E00E944606C3
:1029200060934F037093500380935103909352032D
:1029300061E170E080E090E00E9446067B018C013E
:1029400020916F0330917003409171035091720395
:10295000CA01B9016150704080409040E5E0EE0C42
:10296000FF1C001F111FEA95D1F76E0D7F1D801F00
:10297000911F0E94EF17CA01B9010E9417170E9408
:10298000D8160E94EB1660937B0370937C038093B0
:102990007D0390937E0366E170E080E090E00E940A
:1029A00046066093530370935403809355039093AA
:1029B0005603611571058105910571F464E270E0BB
:1029C00080E090E00E94A009609353037093540349
:1029D000809355039093560363E170E080E090E0AC
:1029E0000E9446065B016C01611571058105910528
:1029F00041F460E270E080E090E00E94A0095B0199
:102A00006C01E0904F03F09050030091510310913E
:102A1000520360E170E080E090E00E9401062091A6
:102A20007B0330917C0340917D0350917E033501FF
:102A300046016E187F08800A910A84017301E21A28
:102A4000F30A040B150B209153033091540340916A
:102A50005503509156030E94D017E61AF70A080B47
:102A6000190BE0927303F0927403009375031093B3
:102A700076032091470330914803409149035091D8
:102A80004A03C801B7010E94EF17CA01B9010E94A9
:102A900017170E9454170E94EB16609377037093E8
:102AA00078038093790390937A03E0904F03F0903A
:102AB0005003009151031091520360E170E080E0F7
:102AC00090E00E94010620917B0330917C034091AD
:102AD0007D0350917E03E20EF31E041F151F20910B
:102AE00053033091540340915503509156030E9473
:102AF000D017E60EF71E081F191FE0924303F0924D
:102B000044030093450310934603109224018FE978
:102B100091E00E9457038091770390917803A091F0
:102B20007903B0917A03853F2FE0920720E0A20756
:102B300020E0B20780F480ED91E00E94C20380E5BE
:102B400093EC20E931E0F9013197F1F70197D9F7DA
:102B50001092240124C0855F9F4FA040B04078F4BC
:102B60008EEB91E00E94C20380E29EE420E931E016
:102B7000F9013197F1F70197D9F781E00EC08DEA9D
:102B800091E00E94C20380E593EC20E931E0F90175
:102B90003197F1F70197D9F782E080932401809172
:102BA0002401882309F495C0823009F492C0A090D2
:102BB0004F03B0905003C0905103D090520360E196
:102BC00070E080E090E00E94010620915303309174
:102BD000540340915503509156030E94D0177B0136
:102BE0008C01EA0CFB1C0C1D1D1DE0924B03F092A6
:102BF0004C0300934D0310934E03A0906F03B090CD
:102C00007003C0907103D0907203209147033091FC
:102C100048034091490350914A03C601B5010E94FF
:102C2000D01760937F037093800380938103909308
:102C30008203C801B701A60195010E94D0177B014C
:102C40008C01609383037093840380938503909336
:102C500086036093570370935803809359039093AE
:102C60005A0360935B0370935C0380935D039093BE
:102C70005E0310925F031092600310926103109242
:102C80006203109263031092640310926503109222
:102C9000660320917B0330917C0340917D0350912A
:102CA0007E03C601B5010E94D0176E0D7F1D801FE7
:102CB000911F60936B0370936C0380936D039093EB
:102CC0006E03E0926703F092680300936903109328
:102CD0006A031F910F91FF90EF90DF90CF90BF900C
:102CE000AF909F908F907F906F9008951F93CF9398
:102CF000DF930E94B70E0E9410010E9418020E94EA
:102D000022130E94041410E0C0E9D1E001C013E0D6
:102D100084E590E00E945703112329F48AE293E0AE
:102D200069EC70E014C0113029F48AE293E06BED95
:102D300070E00DC0123029F48AE293E06DEE70E08D
:102D400006C0133031F48AE293E06FEF70E00E9426
:102D500011188AE293E00E94E60288E893E1FE01FE
:102D60003197F1F70197D9F7839B04C0112379F2CA
:102D70001150CECF819B06C0133011F410E0C8CFA4
:102D80001F5FC6CF849BF0CF112319F41092290145
:102D900006C0113011F0123029F4109329010E945D
:102DA000E411B6CF133009F0B3CF0E941611B0CFA3
:102DB000D9D080F09F3740F491110EF4EBC060E061
:102DC00070E080E89FE3089526F01B16611D711DD9
:102DD000811D7DC097C0ACD088F09F5790F0B92F6F
:102DE0009927B751A0F0D1F0660F771F881F991F60
:102DF0001AF0BA95C9F712C0B13081F0CAD0B1E06B
:102E00000895C7C0672F782F8827B85F39F0B93F7A
:102E1000CCF3869577956795B395D9F73EF4909561
:102E20008095709561957F4F8F4F9F4F0895E894DF
:102E300009C097FB3EF490958095709561957F4F02
:102E40008F4F9F4F9923A9F0F92F96E9BB279395B0
:102E5000F695879577956795B795F111F8CFFAF4C0
:102E6000BB0F11F460FF1BC06F5F7F4F8F4F9F4FF1
:102E700016C0882311F096E911C0772321F09EE84F
:102E8000872F762F05C0662371F096E8862F70E0B5
:102E900060E02AF09A95660F771F881FDAF7880F8F
:102EA0009695879597F908955DD080F09F3740F407
:102EB00091110EF06FC060E070E080E89FEB089524
:102EC00026F41B16611D711D811D01C01BC08823C6
:102ED00071F4772321F09850872B762F07C0662353
:102EE00011F499270DC09051862B70E060E02AF014
:102EF0009A95660F771F881FDAF7880F9695879542
:102F000097F908959F3F31F0915020F48795779578
:102F10006795B795880F911D9695879597F90895B0
:102F200057FD9058440F551F59F05F3F71F047957A
:102F3000880F97FB991F61F09F3F79F0879508955F
:102F4000121613061406551FF2CF4695F1DF08C07E
:102F5000161617061806991FF1CF8695710561059B
:102F600008940895E5DFA0F0BEE7B91788F4BB2701
:102F70009F3860F41616B11D672F782F8827985F49
:102F8000F7CF869577956795B11D93959639C8F3D8
:102F90000895E894BB2766277727CB0197F9089512
:102FA000629FD001739FF001829FE00DF11D649F2D
:102FB000E00DF11D929FF00D839FF00D749FF00DB9
:102FC000659FF00D9927729FB00DE11DF91F639F5A
:102FD000B00DE11DF91FBD01CF0111240895A1E23B
:102FE0001A2EAA1BBB1BFD010DC0AA1FBB1FEE1F83
:102FF000FF1FA217B307E407F50720F0A21BB30BCE
:10300000E40BF50B661F771F881F991F1A9469F749
:1030100060957095809590959B01AC01BD01CF01A5
:103020000895FB01DC0101900D920020E1F7089565
:10303000AEE0B0E0EEE1F8E10C94C71A0D891E890C
:1030400086E08C831A8309838FEF9FE79E838D83AD
:103050009E01275E3F4FCE0101966F89788DA901B1
:103060000E943C182F813885020F131FF80110822F
:103070002E96E4E00C94E31AABE0B0E0E2E4F8E171
:103080000C94B91A3C012B015A01FC0117821682DB
:10309000838181FD03C06FEF7FEFC6C19AE0892E67
:1030A0001E010894211C311CF3012381F20123FD30
:1030B000859123FF81912F01882309F4B2C18532C4
:1030C00039F423FD859123FF81912F01853229F465
:1030D00090E0B3010E942F1AE7CF982FFF24EE242F
:1030E0009924FFE1FF15D0F09B3269F09C3228F45F
:1030F000903259F0933291F40EC09D3249F09033E2
:1031000069F441E024C052E0F52A84E0F82A28C09E
:1031100098E0F92A25C0E0E1FE2A22C0F7FC29C088
:10312000892F80538A3070F4F6FE05C0989C902C4D
:103130001124980E15C0E89CE02C1124E80EF0E252
:10314000FF2A0EC09E3229F4F6FC6BC140E4F42A3B
:1031500007C09C3619F450E8F52A02C0983649F4A5
:10316000F20123FD959123FF91912F01992309F0FD
:10317000B8CF892F8554833018F08052833038F4CB
:1031800044E050E0A40EB51E5FE359830FC09336B0
:1031900031F0933779F0933509F056C020C0F5012E
:1031A0008081898342E050E0A40EB51E610101E0F8
:1031B00010E012C0F501C080D180F6FC03C06FEFB3
:1031C0007FEF02C0692D70E042E050E0A40EB51E12
:1031D000C6010E94241A8C015FE7F52214C0F50194
:1031E000C080D180F6FC03C06FEF7FEF02C0692D75
:1031F00070E042E050E0A40EB51EC6010E94191A0C
:103200008C0150E8F52AF3FE07C01AC080E290E076
:10321000B3010E942F1AEA948E2D90E00817190727
:10322000A8F30EC0F601F7FC8591F7FE81916F01BE
:1032300090E0B3010E942F1AE110EA94015010406F
:103240000115110579F7EAC0943611F0993669F540
:10325000F7FE08C0F501208131814281538184E06D
:1032600090E00AC0F501808191819C01442737FDDF
:103270004095542F82E090E0A80EB91E9FE6F922F7
:1032800057FF09C050954095309521953F4F4F4FBE
:103290005F4FE0E8FE2ACA01B901A1012AE030E04F
:1032A0000E945B1AD82ED21840C0953729F41F2DE2
:1032B0001F7E2AE030E01DC01F2D197F9F3661F070
:1032C000903720F4983509F0ACC00FC0903739F032
:1032D000983709F0A6C004C028E030E00AC01061A9
:1032E00014FD146020E130E004C014FD166020E1FC
:1032F00032E017FF08C0F5016081718182819381FE
:1033000044E050E008C0F50180819181BC0180E07B
:1033100090E042E050E0A40EB51EA1010E945B1AAD
:10332000D82ED2188FE7F82EF122F6FE0BC05EEFF2
:10333000F522D91438F4F4FE07C0F2FC05C08FEE74
:10334000F82202C01D2D01C0192DF4FE0DC0FE0192
:10335000ED0DF11D8081803319F499EEF92208C03A
:103360001F5FF2FE05C003C08F2D867809F01F5F36
:103370000F2DF3FC14C0F0FE0FC01E1510F09D2C95
:103380000BC09D2C9E0C911A1E2D06C080E290E071
:10339000B3010E942F1A1F5F1E15C0F304C01E1533
:1033A00010F4E11A01C0EE2404FF0FC080E390E0A6
:1033B000B3010E942F1A02FF1DC001FD03C088E760
:1033C00090E00EC088E590E00BC0802F867891F0E9
:1033D00001FF02C08BE201C080E2F7FC8DE290E0C9
:1033E000B3010E942F1A06C080E390E0B3010E944F
:1033F0002F1A9A94D914C0F3DA94F101ED0DF11D4E
:10340000808190E0B3010E942F1ADD20A9F706C049
:1034100080E290E0B3010E942F1AEA94EE20C1F7F7
:1034200043CEF30166817781CB012B96E2E10C94C8
:10343000D51AFC010590615070400110D8F78095B5
:1034400090958E0F9F1F0895FC0161507040019070
:103450000110D8F7809590958E0F9F1F08950F93B8
:103460001F93CF93DF938C01EB018B8181FF1BC0F6
:1034700082FF0DC02E813F818C819D8128173907E5
:1034800064F4E881F9810193F983E88306C0E88553
:10349000F985802F0995892B31F48E819F810196C2
:1034A0009F838E8302C00FEF1FEFC801DF91CF9182
:1034B0001F910F910895FA01AA27283051F1203168
:1034C00081F1E8946F936E7F6E5F7F4F8F4F9F4FB8
:1034D000AF4FB1E03ED0B4E03CD0670F781F891FFA
:1034E0009A1FA11D680F791F8A1F911DA11D6A0FC8
:1034F000711D811D911DA11D20D009F468943F917B
:103500002AE0269F11243019305D3193DEF6CF0179
:103510000895462F4770405D4193B3E00FD0C9F73F
:10352000F6CF462F4F70405D4A3318F0495D31FDAC
:103530004052419302D0A9F7EACFB4E0A6959795FF
:10354000879577956795BA95C9F7009761057105D5
:1035500008959B01AC010A2E06945795479537951F
:103560002795BA95C9F7620F731F841F951FA01D79
:1035700008952F923F924F925F926F927F928F9217
:103580009F92AF92BF92CF92DF92EF92FF920F93F2
:103590001F93CF93DF93CDB7DEB7CA1BDB0B0FB6FC
:1035A000F894DEBF0FBECDBF09942A8839884888B9
:1035B0005F846E847D848C849B84AA84B984C8844F
:1035C000DF80EE80FD800C811B81AA81B981CE0F46
:1035D000D11D0FB6F894DEBF0FBECDBFED0108952B
:0435E000F894FFCF8D
:1035E400426C6F636B3A2575205B25755D00426CF8
:1035F4006F636B3A2575205B305D0050726F6772A4
:103604006573733A25692025250025303578203DDA
:10361400205B25303278202C20253032785D000064
:103624005B253032753A253035755D2046696C6509
:10363400005B253032753A253035755D2050617058
:103644006B6100256920CCC1003E205350454544A0
:103654002054415045207831203C003E20535045B1
:1036640045442054415045207832203C003E2053AC
:10367400504545442054415045207834203C003E78
:10368400202020544553542052414D202020203CDA
:08369400000002FFFFFFFF0030
:00000001FF
